:020000040800F2
:10000000002800202523000851140008531400087C
:100010005514000857140008591400080000000087
:100020000000000000000000000000005B14000859
:100030005D140008000000005F140008611400084F
:100040006D2300086D2300086D2300086D23000850
:100050006D2300086D2300086D2300086D23000840
:100060006D2300086D2300086D2300086D23000830
:100070006D2300086D2300086D2300086D23000820
:100080006D2300086D2300086D2300086D23000810
:100090006D2300086D2300086D2300086D23000800
:1000A0006D2300086D2300086D2300086D230008F0
:1000B000691400086D230008000000006D2300088B
:1000C0006D23000800000000000000006D23000800
:1000D000000000006D2300086D23000800000000F0
:1000E0006D2300086D2300086D2300080000000048
:1000F0000000000000000000000000000000000000
:0C01000000000000000000005FF808F1A3
:10010C000348044B834202D0034B03B1184770479A
:10011C001C0000201C000020000000000548064BBD
:10012C001B1AD90F01EBA301491002D0034B03B1E9
:10013C00184770471C0000201C0000200000000025
:10014C0010B5064C237843B9FFF7DAFF044B13B113
:10015C000448AFF300800123237010BD1C00002065
:10016C0000000000C823000808B5054B1BB1054969
:10017C000548AFF30080BDE80840FFF7CFBF00BFD4
:10018C000000000020000020C82300082DE9F041E9
:10019C0086B000240294039404940594224B9A692B
:1001AC0042F004029A619A6902F004020092009AE9
:1001BC009A6942F008029A619B6903F00803019363
:1001CC00019B1A4E224641F6E271304602F01BF8B2
:1001DC00174F22464FF60761384602F014F841F6E5
:1001EC00E27302930125039504944FF00208CDF8B5
:1001FC00148002A9304601F0F3FE1C2302930394F1
:10020C00049502A9304601F0EBFE4FF6076302930A
:10021C0003950494CDF8148002A9384601F0E0FE51
:10022C0006B0BDE8F08100BF00100240000801409C
:10023C00000C014008B501F0BFF800F0D5FF08BD77
:10024C0072B6FEE700B587B00023029303930493C4
:10025C0005930093019314484FF08042026041F6DD
:10026C003F72426083600922C2600361836101F0C6
:10027C0083FA90B94FF48053029302A90A4801F013
:10028C00B3FA60B90023009301936946064801F064
:10029C002BFB30B907B05DF804FBFFF7D1FFFFF77C
:1002AC00CFFFFFF7CDFF00BF3800002000B591B0A5
:1002BC002822002106A802F054F80023019302938F
:1002CC000393049305930223069301230A931023AB
:1002DC000B9306A801F09CFB68B90F230193002136
:1002EC00029103910491059101A801F0C3FD20B97D
:1002FC0011B05DF804FBFFF7A3FFFFF7A1FF0000AF
:10030C0008B501F04BFBFFF7D1FFFFF73FFFFFF7FD
:10031C0099FF084801F00CF900F028FF0022022197
:10032C00054801F070FF054B01221A6000F0A6FC95
:10033C00FCE700BF3800002000080140000000204E
:10034C0010B4494B19685A689B68023806281DD8A6
:10035C00DFE800F02C45041E53657700434C84FB0A
:10036C000230D317C3EBA0034148036003EB8303B4
:10037C00A2EB4303436084FB0134CB17C3EBA40310
:10038C00836003EB8303A1EB4303C36010BC704792
:10039C00364981FB0321DA17C2EBA10234490A600A
:1003AC0002EB8202A3EB42024A60EFE72F4C84FB84
:1003BC000130CB17C3EBA0032D48036003EB830381
:1003CC00A1EB4303436084FB0234D317C3EBA403B8
:1003DC00836003EB8303A2EB4303C360D6E723499B
:1003EC0081FB0321DA17C2EBA10221498A6002EBDF
:1003FC008202A3EB4202CA60C8E71C4A82FB0132AC
:10040C00CB17C3EBA2031A4A136003EB8303A1EBD4
:10041C0043015160002393600223D360B6E7134974
:10042C0081FB0231D317C3EBA10311490B6003EB22
:10043C008303A2EB43024A6000238B600323CB604F
:10044C00A4E70A4981FB0321DA17C2EBA102084990
:10045C000A6002EB8202A3EB42034B6000238B6029
:10046C000423CB6092E700BF040000206766666639
:10047C009000002017490A6802EB820253004A6878
:10048C001344013B22D4144981FB0321DA17C2EB3C
:10049C00A1021048026002EB82025100591A41601D
:1004AC00826802EB82025300C2681344013B0FD4F2
:1004BC00094981FB0321DA17C2EBA10205488260CE
:1004CC0002EB82025100591AC16070470923DAE726
:1004DC000923EDE7900000206766666610B50928D1
:1004EC0036D8DFE810F00A00360062008E00BA0041
:1004FC00E60012013E016A019601DC4C00224FF429
:10050C000071204601F07FFE00224FF480612046EE
:10051C0001F079FE00224FF40061204601F073FED9
:10052C0000224FF48051204601F06DFE00224FF462
:10053C000051204601F067FE00224FF48041204616
:10054C0001F061FE01224FF40041204601F05BFEF8
:10055C0010BDC64C01224FF40071204601F053FE31
:10056C0000224FF48061204601F04DFE00224FF432
:10057C000061204601F047FE01224FF480512046D5
:10058C0001F041FE01224FF40051204601F03BFEE8
:10059C0001224FF48041204601F035FE01224FF438
:1005AC000041204601F02FFED2E7B04C00224FF460
:1005BC000071204601F027FE00224FF48061204696
:1005CC0001F021FE01224FF40061204601F01BFED8
:1005DC0000224FF48051204601F015FE00224FF40A
:1005EC000051204601F00FFE01224FF480412046BD
:1005FC0001F009FE00224FF40041204601F003FEF9
:10060C00A6E79A4C00224FF40071204601F0FBFD46
:10061C0000224FF48061204601F0F5FD00224FF4DA
:10062C000061204601F0EFFD00224FF4805120467E
:10063C0001F0E9FD01224FF40051204601F0E3FDE9
:10064C0001224FF48041204601F0DDFD00224FF4E1
:10065C000041204601F0D7FD7AE7844C01224FF48B
:10066C000071204601F0CFFD00224FF4806120463E
:10067C0001F0C9FD00224FF40061204601F0C3FDDA
:10068C0001224FF48051204601F0BDFD01224FF4B0
:10069C000051204601F0B7FD00224FF48041204666
:1006AC0001F0B1FD00224FF40041204601F0ABFDFA
:1006BC004EE76E4C00224FF40071204601F0A3FD72
:1006CC0001224FF48061204601F09DFD00224FF481
:1006DC000061204601F097FD00224FF48051204626
:1006EC0001F091FD01224FF40051204601F08BFDE9
:1006FC0000224FF48041204601F085FD00224FF48A
:10070C000041204601F07FFD22E7584C00224FF4B7
:10071C000071204601F077FD01224FF480612046E4
:10072C0001F071FD00224FF40061204601F06BFDD9
:10073C0000224FF48051204601F065FD00224FF459
:10074C000051204601F05FFD00224FF4804120460D
:10075C0001F059FD00224FF40041204601F053FDF9
:10076C00F6E6424C00224FF40071204601F04BFD9E
:10077C0000224FF48061204601F045FD00224FF429
:10078C000061204601F03FFD01224FF480512046CC
:10079C0001F039FD01224FF40051204601F033FDE8
:1007AC0001224FF48041204601F02DFD01224FF42F
:1007BC000041204601F027FDCAE62C4C00224FF4E4
:1007CC000071204601F01FFD00224FF4806120468D
:1007DC0001F019FD00224FF40061204601F013FDD9
:1007EC0000224FF48051204601F00DFD00224FF401
:1007FC000051204601F007FD00224FF480412046B5
:10080C0001F001FD00224FF40041204601F0FBFCF9
:10081C009EE6164C00224FF40071204601F0F3FCCA
:10082C0000224FF48061204601F0EDFC00224FF4D1
:10083C000061204601F0E7FC00224FF48051204675
:10084C0001F0E1FC01224FF40051204601F0DBFCE9
:10085C0000224FF48041204601F0D5FC00224FF4D9
:10086C000041204601F0CFFC72E600BF000C0140B5
:10087C0010B5464B1B78032B23D8DFE803F002237B
:10088C004465434B1868FFF729FE424C00224FF495
:10089C008071204601F0B7FC01224FF40071204614
:1008AC0001F0B1FC01224FF48061204601F0ABFC59
:1008BC0001224FF40061204601F0A5FC334B0122CC
:1008CC001A7010BD324B5868FFF708FE314C0122EC
:1008DC004FF48071204601F096FC00224FF4007119
:1008EC00204601F090FC01224FF48061204601F07B
:1008FC008AFC01224FF40061204601F084FC234B5A
:10090C0002221A70DDE7224B9868FFF7E7FD214CB5
:10091C0001224FF48071204601F075FC01224FF446
:10092C000071204601F06FFC00224FF480612046DC
:10093C0001F069FC01224FF40061204601F063FCD8
:10094C00124B03221A70BCE7114BD868FFF7C6FD97
:10095C00104C01224FF48071204601F054FC01220E
:10096C004FF40071204601F04EFC01224FF48061DF
:10097C00204601F048FC00224FF40061204601F0B3
:10098C0042FC024B00221A709BE700BF8000002043
:10099C0090000020000801400C490A6802EB82021A
:1009AC0053004A6813440133632B00DD01230849CB
:1009BC0081FB0321DA17C2EBA1020448026002EBAF
:1009CC0082025100591A4160704700BF900000200C
:1009DC0067666666094A536891680B4412689342CD
:1009EC000AD07047054A52F82310054A42F82310E2
:1009FC000133022BF6DDF4E70023FAE78400002034
:100A0C00040000200B4A136803EB8303526802EBCB
:100A1C004302072807D0082808D0062800D07047C2
:100A2C00054B1A607047044B5A607047024B9A6032
:100A3C00F5E700BF900000208400002010B50138BD
:100A4C000F282AD8DFE800F0F6082A4C6E2929294D
:100A5C00292929292990D4B2874C0122202120460A
:100A6C0001F0D1FB00224021204601F0CCFB0022FA
:100A7C008021204601F0C7FB04F58064002201218F
:100A8C00204601F0C0FB01220221204601F0BBFBF5
:100A9C0000220421204601F0B6FB10BD764C012249
:100AAC002021204601F0AFFB00224021204601F01E
:100ABC00AAFB00228021204601F0A5FB04F58064EE
:100ACC0000220121204601F09EFB0022022120463B
:100ADC0001F099FB01220421204601F094FBDCE794
:100AEC00654C00222021204601F08DFB0122402183
:100AFC00204601F088FB00228021204601F083FB78
:100B0C0004F5806401221146204601F07CFB002292
:100B1C000221204601F077FB00220421204601F03F
:100B2C0072FBBAE7544C00222021204601F06BFBEB
:100B3C0000224021204601F066FB01228021204644
:100B4C0001F061FB04F5806401221146204601F09E
:100B5C005AFB00220221204601F055FB0022042101
:100B6C00204601F050FB98E7434C012220212046FF
:100B7C0001F049FB00224021204601F044FB0022F9
:100B8C008021204601F03FFB04F5806401221146D0
:100B9C00204601F038FB00220221204601F033FBF5
:100BAC0000220421204601F02EFB76E7324C002275
:100BBC002021204601F027FB00224021204601F095
:100BCC0022FB01228021204601F01DFB04F58064EC
:100BDC0000220121204601F016FB002202212046B2
:100BEC0001F011FB01220421204601F00CFB54E71B
:100BFC00214C00222021204601F005FB002240213F
:100C0C00204601F000FB01228021204601F0FBFA76
:100C1C0004F5806400220121204601F0F4FA002240
:100C2C000221204601F0EFFA01220421204601F0B6
:100C3C00EAFA32E7104C00222021204601F0E3FAB8
:100C4C0000224021204601F0DEFA002280212046BD
:100C5C0001F0D9FA04F5806400220121204601F04C
:100C6C00D2FA00220221204601F0CDFA0022042102
:100C7C00204601F0C8FA10E70008014038B5BD4B1A
:100C8C001B68013B072B1DD8DFE813F0080022007E
:100C9C0060009E00DD001C019001F4010120FFF7B3
:100CAC00CDFE0224B34B1C60B34B58684FF47A75DD
:100CBC0005FB00F000F038FB284600F059FB2046FD
:100CCC00FFF73EFBAD4B1B68012B00F03D8238BD9E
:100CDC000220FFF7B3FEAA4B1B68012B1DD0A94BBA
:100CEC001B68012B20D0002000F070FA0128E9D1FC
:100CFC000221A54801F08DFA06249E4B1C600120B0
:100D0C00FFF79CFE42F2107000F00EFB2046FFF73E
:100D1C0017FBFA2000F01AFBD4E74FF47A7000F0BE
:100D2C0027FBFFF7A7FBDAE70324924B1C60924BDF
:100D3C0098684FF47A7505FB00F000F0F5FA284638
:100D4C0000F016FB2046FFF7FBFACCE70320FFF779
:100D5C0075FE8B4B1B68012B1DD08A4B1B68012B1E
:100D6C0020D0002000F032FA0128ABD102218648B5
:100D7C0001F04FFA06247F4B1C600120FFF75EFE4A
:100D8C0042F2107000F0D0FA2046FFF7D9FAFA20A0
:100D9C0000F0DCFA96E74FF47A7000F0E9FAFFF70E
:100DAC0069FBDAE70424734B1C60734B58684FF4EF
:100DBC007A7505FB00F000F0B7FA284600F0D8FA77
:100DCC002046FFF7BDFACCE70420FFF737FE6C4B4B
:100DDC001B68012B1ED06B4B1B68012B21D00020F4
:100DEC0000F0F4F901287FF46DAF0221664801F0A0
:100DFC0010FA06245F4B1C600120FFF71FFE42F225
:100E0C00107000F091FA2046FFF79AFAFA2000F0E1
:100E1C009DFA57E74FF47A7000F0AAFAFFF72AFB15
:100E2C00D9E70524534B1C60534B98684FF47A75E3
:100E3C0005FB00F000F078FA284600F099FA2046FD
:100E4C00FFF77EFACBE70520FFF7F8FD4C4B1B684C
:100E5C00012B1ED04B4B1B68012B21D0002000F026
:100E6C00B5F901287FF42EAF0221474801F0D1F9E2
:100E7C000624404B1C600120FFF7E0FD42F210708D
:100E8C0000F052FA2046FFF75BFAFA2000F05EFA07
:100E9C0018E74FF47A7000F06BFAFFF7EBFAD9E72A
:100EAC000224344B1C60344B58684FF47A7505FBA4
:100EBC0000F000F039FA284600F05AFA2046FFF705
:100ECC003FFACBE72F4B1B68012B1FD0002000F003
:100EDC007DF901282ED0012000F078F901283ED0B0
:100EEC00022000F073F9012854D0284B1B68012B09
:100EFC007FF4E8AEFA2000F029FA2021224801F014
:100F0C0088F90121224801F084F9DBE60424194B0D
:100F1C001C60FFF75FFD184B58684FF47A7505FBA2
:100F2C0000F000F001FA284600F022FA2046FFF704
:100F3C0007FACBE70221144801F06BF907240D4B9B
:100F4C001C6042F2107000F0EFF90120FFF776FD03
:100F5C002046FFF7F5F9FA2000F0F8F9BBE702217B
:100F6C00094801F056F9FFF717FD42F2107000F036
:100F7C00DBF9B5E700000020040000201001002080
:100F8C00140100201C010020000801401801002061
:100F9C00000C014002216F4801F03BF90620FFF7DD
:100FAC0031FD42F2107000F0BFF99EE76A4B1B68EE
:100FBC00012B1FD0002000F009F901282ED00120B0
:100FCC0000F004F901283ED0022000F0FFF80128BF
:100FDC0044D0624B1B68012B7FF474AEFA2000F0F6
:100FEC00B5F940215B4801F014F902215C4801F08D
:100FFC0010F967E604245B4B1C60FFF7EBFC5A4BC3
:10100C0058684FF47A7505FB00F000F08DF928460E
:10101C0000F0AEF92046FFF793F9CBE702214D48DB
:10102C0001F0F7F808244F4B1C6042F2107000F0EE
:10103C007BF90120FFF702FD2046FFF781F9FA202A
:10104C0000F084F9BBE70221424801F0E2F8FFF717
:10105C00A3FC42F2107000F067F9B5E702213D489D
:10106C0001F0D7F80720FFF7CDFC42F2107000F02A
:10107C005BF9AEE7384B1B68012B1FD0002000F04A
:10108C00A5F801282ED0012000F0A0F8012844D0AA
:10109C00022000F09BF801284AD0304B1B68012B32
:1010AC007FF410AEFA2000F051F98021294801F0AC
:1010BC00B0F804212A4801F0ACF803E60424294BCB
:1010CC001C60FFF787FC284B58684FF47A7505FBBA
:1010DC0000F000F029F9284600F04AF92046FFF705
:1010EC002FF9CBE702211B4801F093F804241D4B88
:1010FC001C60FFF76FFC1C4B58684FF47A7505FBAE
:10110C0000F000F011F9284600F032F92046FFF704
:10111C0017F9FA2000F01AF9B5E702210D4801F091
:10112C0078F8FFF739FC42F2107000F0FDF8AFE7E9
:10113C000221084801F06DF80820FFF763FC42F229
:10114C00107000F0F1F8A8E7642000F023F9FFF725
:10115C008FFBBCE5000801401C0100201801002099
:10116C00000C0140000000200400002000231AE0C5
:10117C0001220E4941F823200D4941F823200D4945
:10118C0041F823200C4941F823200C4941F8232035
:10119C0000220B4941F823200A4941F823200A492F
:1011AC0041F823200133022BE2DD7047F4000020CC
:1011BC00E8000020DC000020D0000020C40000204B
:1011CC00B8000020AC000020A00000200346054A17
:1011DC0052F82000012801D000207047002142F86D
:1011EC0023107047AC00002010B500243AE0042115
:1011FC00444801F001F8444B43F8240045E0082131
:10120C00404800F0F9FF404B43F824003DE010212A
:10121C003C4800F0F1FF3C4B43F8240035E002BBA6
:10122C003A4B43F824201CE00123394A42F824307D
:10123C00364A42F82430002241F8242046E0354951
:10124C0051F82430013341F82430C72B07DD324BE1
:10125C00012143F824102F4B002143F82410012ABC
:10126C0046D00134022C4CDC2C4B53F824102C4A65
:10127C0042F82410244A52F8242043F82420012C4C
:10128C00BDD0022CC3D0002CB1D0244B53F8243049
:10129C00234A52F824209342E3D11B4A52F82420CB
:1012AC009342DED11F4B43F82420184B53F82430C3
:1012BC00012BB4D0022BC2D0002BD2D1154951F83E
:1012CC002430013341F82430012AADD0114B53F8AE
:1012DC002430C72BC5DD104B012243F824200B4BC7
:1012EC00022243F824200B4B002243F82420B8E7B9
:1012FC00084B002243F82420044B012243F82420FD
:10130C00AFE710BD00080140DC000020D000002039
:10131C00AC000020B8000020A0000020E800002055
:10132C00F4000020C4000020054B83FB0023C017F1
:10133C00C0EBA300034B1860034B00221A607047EC
:10134C00676666660C0100201C010020054B83FBC0
:10135C000023C017C0EBA300034B1860034B002203
:10136C001A60704767666666080100201801002045
:10137C00054B83FB0023C017C0EBA300034B186085
:10138C00034B00221A6070476766666604010020F2
:10139C0014010020054B83FB0023C017C0EBA300F6
:1013AC00034B1860034B00221A6070476766666631
:1013BC0000010020100100201A4B1B68002B04DBDD
:1013CC00013B184A1360002B1BDD174B1B68002BCD
:1013DC0004DB013B144A1360002B16DD134B1B6816
:1013EC00002B04DB013B114A1360002B11DD104B69
:1013FC001B68002B04DB013B0D4A1360002B0CDD3A
:10140C0070470C4B01221A60DFE70B4B01221A606C
:10141C00E4E70A4B01221A60E9E7094B01221A6042
:10142C00EEE700BF0C0100200801002004010020A1
:10143C00000100201C0100201801002014010020D4
:10144C0010010020FEE7FEE7FEE7FEE7FEE770472F
:10145C007047704708B500F0B3FA08BD08B50248EC
:10146C0000F09AF808BD00BF3800002082B00A4B8B
:10147C009A6942F001029A619A6902F001020092A3
:10148C00009ADA6942F08052DA61DB6903F080532A
:10149C000193019B02B07047001002400368B3F146
:1014AC00804F00D0704700B583B003F50433DA6980
:1014BC0042F00102DA61DB6903F001030193019B45
:1014CC00002211461C2000F0F3FE1C2000F000FF4F
:1014DC0003B05DF804FB10B4036A046A24F0010441
:1014EC000462846924F0F00C4CEA021223F00A0323
:1014FC000B438261036210BC704710B4036A046A28
:10150C0024F010040462846924F4704C4CEA023216
:10151C0023F0A00343EA01138261036210BC7047FD
:10152C00836823F070030B4343F007038360704719
:10153C0090F83D30DBB2012B23D1022380F83D30F3
:10154C000268D36843F00103D36003680F4A9342E7
:10155C000CD0B3F1804F09D0A2F59432934205D050
:10156C001A6842F001021A60002070479A6802F073
:10157C000702062A07D01A6842F001021A600020FE
:10158C007047012070470020704700BF002C0140BD
:10159C00704770477047704710B5044603681A6966
:1015AC0012F0020F11D0DA6812F0020F0DD06FF0AA
:1015BC0002021A610123037703689B6913F0030F7E
:1015CC0070D0FFF7E6FF0023237723681A6912F027
:1015DC00040F12D0DA6812F0040F0ED06FF0040270
:1015EC001A610223237723689B6913F4407F5FD031
:1015FC002046FFF7CEFF0023237723681A6912F0E9
:10160C00080F12D0DA6812F0080F0ED06FF0080233
:10161C001A61042323772368DB6913F0030F4ED080
:10162C002046FFF7B6FF0023237723681A6912F0D0
:10163C00100F12D0DA6812F0100F0ED06FF01002EB
:10164C001A61082323772368DB6913F4407F3DD0AC
:10165C002046FFF79EFF0023237723681A6912F0B8
:10166C00010F03D0DA6812F0010F36D123681A6922
:10167C0012F0800F03D0DA6812F0800F34D1236897
:10168C001A6912F0400F03D0DA6812F0400F32D111
:10169C0023681A6912F0200F03D0DA6812F0200FB9
:1016AC0030D110BDFFF774FF2046FFF773FF8AE7B8
:1016BC002046FFF76DFF2046FFF76CFF9BE72046A7
:1016CC00FFF766FF2046FFF765FFACE72046FFF704
:1016DC005FFF2046FFF75EFFBDE76FF001021A6166
:1016EC002046FEF7A7FDC1E76FF080021A61204685
:1016FC0000F02DF9C3E76FF040021A612046FFF7A6
:10170C004AFFC5E76FF020021A61204600F01EF96F
:10171C00C7E700000368174A904206D0B0F1804F2B
:10172C0003D0A2F59432904203D123F070034A689F
:10173C001343104A904206D0B0F1804F03D0A2F56B
:10174C009432904203D123F44073CA68134323F0BC
:10175C0080034A69134303608B68C3620B6883621E
:10176C00044B984202D00123436170470B69036319
:10177C00F9E700BF002C014040B310B5044690F8C7
:10178C003D30F3B1022384F83D30214651F8040B6F
:10179C00FFF7C0FF012384F8463084F83E3084F80C
:1017AC003F3084F8403084F8413084F8423084F87B
:1017BC00433084F8443084F8453084F83D300020C0
:1017CC0010BD80F83C30FFF769FEDBE70120704765
:1017DC0010B4846824F47F4C42EA03220A4342EAA0
:1017EC000C02826010BC704790F83C30012B78D012
:1017FC0010B50446012380F83C30022380F83D30BC
:10180C000268936823F47F4323F0770393600B689B
:10181C00602B4CD029D8402B54D00CD9502B22D132
:10182C00CA6849680068FFF756FE50212068FFF728
:10183C0077FE002005E0202B0DD009D9302B0AD0E3
:10184C000120012384F83D30002384F83C3010BD86
:10185C000BB1102B05D119462068FFF761FE002053
:10186C00EFE70120EDE70120EBE7B3F5805F34D023
:10187C00B3F5005F0CD1CB684A6889680068FFF744
:10188C00A7FF2268936843F4804393600020D8E755
:10189C00702B24D1CB684A6889680068FFF798FFE1
:1018AC002268936843F0770393600020C9E7CA6805
:1018BC0049680068FFF721FE60212068FFF730FEC1
:1018CC000020BEE7CA6849680068FFF704FE4021A3
:1018DC002068FFF725FE0020B3E70020B1E70120C8
:1018EC00AFE702207047000090F83C20012A28D076
:1018FC0010B40346012280F83C20022280F83D20DF
:10190C0002685068946820F0700C086840EA0C007B
:10191C0050601A680C48824206D0B2F1804F03D056
:10192C00A0F59430824204D124F08004496821430C
:10193C009160012283F83D20002083F83C0010BC0C
:10194C0070470220704700BF002C01407047704761
:10195C0010B504460E4B1A784FF47A73B3FBF2F3BE
:10196C000C4A1068B0FBF3F000F0C0FC68B90F2C07
:10197C0001D901200AE0002221464FF0FF3000F08F
:10198C0097FC054B1C60002000E0012010BD00BF3F
:10199C0010000020180000201400002008B5074A91
:1019AC00136843F010031360032000F06FFC0F204A
:1019BC00FFF7CEFFFFF75AFD002008BD00200240C4
:1019CC00034A1168034B1B780B441360704700BF2C
:1019DC002001002010000020014B1868704700BF48
:1019EC002001002082B0084B1B68084AA2FB03238D
:1019FC005B0A00FB03F3019300BF019B5A1E01928B
:101A0C00002BF9D102B0704718000020D34D6210A2
:101A1C00002800F0F18170B582B00446036813F021
:101A2C00010F2CD0994B5B6803F00C03042B1DD0D9
:101A3C00964B5B6803F00C03082B12D06368B3F56C
:101A4C00803F41D0002B55D103F1804303F5043383
:101A5C001A6822F480321A601A6822F480221A6002
:101A6C0037E08A4B5B6813F4803FE7D0874B1B68E9
:101A7C0013F4003F03D06368002B00F0BF81236890
:101A8C0013F0020F75D0814B5B6813F00C0F5FD015
:101A9C007E4B5B6803F00C03082B54D02369002B9E
:101AAC0000F08A807A4B01221A60FFF795FF0546F9
:101ABC00764B1B6813F0020F75D1FFF78DFF401B9F
:101ACC000228F5D903209EE1704A136843F4803351
:101ADC001360636843B3FFF77FFF05466B4B1B68CE
:101AEC0013F4003FCBD1FFF777FF401B6428F5D9E7
:101AFC00032088E1B3F5A02F09D0644B1A6822F4B7
:101B0C0080321A601A6822F480221A60E1E703F12D
:101B1C008043A3F53C331A6842F480221A601A6899
:101B2C0042F480321A60D4E7FFF756FF0546574B54
:101B3C001B6813F4003FA2D0FFF74EFF401B642834
:101B4C00F5D903205FE1514B5B6813F4803FA5D1BD
:101B5C004E4B1B6813F0020F03D02369012B40F08E
:101B6C004F814A4A136823F0F803616943EAC103C1
:101B7C001360236813F0080F33D0A369002B5CD0DB
:101B8C00434B0122C3F88024FFF726FF05463F4B49
:101B9C005B6A13F0020F21D1FFF71EFF401B0228D6
:101BAC00F5D903202FE1394A136823F0F803616952
:101BBC0043EAC1031360DCE7354B00221A60FFF7E0
:101BCC000BFF0546314B1B6813F0020FD1D0FFF70A
:101BDC0003FF401B0228F5D9032014E10120FFF775
:101BEC0001FF236813F0040F00F09680274BDB698C
:101BFC0013F0805F34D1254BDA6942F08052DA6100
:101C0C00DB6903F080530193019B0125214B1B6879
:101C1C0013F4807F26D0E368012B3DD0002B53D1E9
:101C2C0003F1804303F504331A6A22F001021A62AD
:101C3C001A6A22F004021A6233E0154B0022C3F830
:101C4C008024FFF7C9FE0546104B5B6A13F0020FA8
:101C5C00C7D0FFF7C1FE401B0228F5D90320D2E004
:101C6C000025D3E70B4A136843F480731360FFF726
:101C7C00B3FE0646074B1B6813F4807FCBD1FFF7EE
:101C8C00ABFE801B6428F5D90320BCE00010024099
:101C9C0000004242007000405F4A136A43F00103A7
:101CAC001362E36833B3FFF797FE06465A4B1B6A81
:101CBC0013F0020F2FD1FFF78FFE801B41F28833F8
:101CCC009842F3D903209EE0052B09D0524B1A6A97
:101CDC0022F001021A621A6A22F004021A62E0E788
:101CEC004D4B1A6A42F004021A621A6A42F001025F
:101CFC001A62D6E7FFF770FE0646474B1B6A13F0D5
:101D0C00020F08D0FFF768FE801B41F2883398421F
:101D1C00F3D9032077E0E5B9E369002B72D03E4A92
:101D2C00526802F00C02082A56D0022B17D03B4BFB
:101D3C0000221A66FFF750FE0446374B1B6813F05F
:101D4C00007F47D0FFF748FE001B0228F5D903207F
:101D5C0059E0314AD36923F08053D361DCE72F4B30
:101D6C0000221A66FFF738FE05462B4B1B6813F052
:101D7C00007F06D0FFF730FE401B0228F5D9032068
:101D8C0041E0236AB3F5803F1AD023494B6823F412
:101D9C007413226A606A024313434B601F4B012287
:101DAC001A66FFF719FE04461B4B1B6813F0007FE5
:101DBC000ED1FFF711FE001B0228F5D9032022E0FB
:101DCC00154A536823F40033A1680B435360DCE7D6
:101DDC00002018E0002016E0012B16D00E4B5B689B
:101DEC0003F48031226A914211D103F47013626AB8
:101DFC0093420ED1002006E001207047012002E042
:101E0C00012000E0002002B070BD0120FBE70120A2
:101E1C00F9E70120F7E700BF001002400000424242
:101E2C000F4B5B6803F00C02082A01D00D48704779
:101E3C00C3F383420C49885C13F4803F0BD0084BEE
:101E4C005B68C3F34043094AD35C064A02FB00F0CB
:101E5C00B0FBF3F07047064B03FB00F0704700BF7C
:101E6C000010024000127A00E4230008E02300086E
:101E7C0000093D00002800F0A08070B50D46044616
:101E8C00524B1B6803F007038B420BD24F4A13686B
:101E9C0023F007030B431360136803F007038B4213
:101EAC0040F08D80236813F0020F17D013F0040F4D
:101EBC0004D0474A536843F4E0635360236813F03B
:101ECC00080F04D0424A536843F460535360404AAD
:101EDC00536823F0F003A1680B435360236813F09D
:101EEC00010F31D06368012B20D0022B25D0384A4A
:101EFC00126812F0020F64D035494A6822F00302CE
:101F0C0013434B60FFF768FD0646314B5B6803F0EB
:101F1C000C036268B3EB820F16D0FFF75DFD801BDC
:101F2C0041F288339842F0D9032045E0284A1268E0
:101F3C0012F4003FE0D101203EE0254A126812F075
:101F4C00007FD9D1012037E0204B1B6803F0070339
:101F5C00AB420AD91D4A136823F007032B431360C5
:101F6C00136803F00703AB422DD1236813F0040F61
:101F7C0006D0174A536823F4E063E1680B435360BF
:101F8C00236813F0080F07D0114A536823F46053E9
:101F9C00216943EAC1035360FFF742FF0C4B5B68B6
:101FAC00C3F303130B4AD35CD8400B4B18600B4B99
:101FBC001868FFF7CDFC002070BD01207047012090
:101FCC00FAE70120F8E70120F6E700BF0020024005
:101FDC0000100240F4230008180000201400002018
:101FEC0070B582B00024A44686E07D4DAB4210D083
:101FFC0007D97C4DAB420CD005F58035AB4208D0EF
:10200C0015E0A5F58015AB4203D005F57025AB4264
:10201C0009D18B68002B00F0BB80012B00F0B38042
:10202C004261082403E0A5F58015AB42F1D0BEF166
:10203C00FF0F00F2AF8006464FEA8C0233680F2583
:10204C00954023EA050304FA02F2134333604B680C
:10205C0013F0805F4ED0644B9A6942F001029A6192
:10206C009B6903F001030193019B4FEA9C02951CB1
:10207C005E4B53F825600CF00305AD000F23AB400D
:10208C0026EA03065A4B984200F08B8003F58063D6
:10209C00984200F0888003F5806398427FD0032338
:1020AC00AB4033430232514D45F822304B6813F4A8
:1020BC00801F7AD04F4A936843EA0E0393604B68B3
:1020CC0013F4001F77D04B4AD36843EA0E03D36056
:1020DC004B6813F4003F74D0464A536843EA0E032E
:1020EC0053604B6813F4803F71D0424A136843EA43
:1020FC000E0313600CF1010C0B6833FA0CF26CD06C
:10210C00012202FA0CF203EA020E32EA0303F1D1C5
:10211C004B68122B3FF669AF122B88D801A555F8E6
:10212C0023F000BF1F2000087D2100088721000834
:10213C00992100083B2000083B2000083B200008A8
:10214C003B2000083B2000083B2000083B200008F7
:10215C003B2000083B2000083B2000083B200008E7
:10216C003B2000083B200008812100088D2100083D
:10217C00CC685CE7CC68043459E7CC68083456E783
:10218C00CC680C3453E70261082450E700244EE776
:10219C0004244CE7061DACF1080292004EE7022322
:1021AC007EE700237CE701237AE7124A936823EA4F
:1021BC000E03936083E70F4AD36823EA0E03D360C0
:1021CC0086E70C4A536823EA0E03536089E7094AF1
:1021DC00136823EA0E0313608CE702B070BD00BFD6
:1021EC0000002210000031100010024000000140DD
:1021FC0000080140000401408368194201D001200D
:10220C007047002070470AB10161704709040161F1
:10221C007047C36801EA030221EA030141EA024163
:10222C0001617047002808DB0901C9B200F1604068
:10223C0000F5614080F80013704700F00F000901B1
:10224C00C9B2014B1954704714ED00E000B500F011
:10225C000700C0F1070CBCF1040F28BF4FF0040CB1
:10226C00031D062B0FD9C31E4FF0FF3E0EFA0CF0C8
:10227C0021EA000199400EFA03FE22EA0E0241EA1D
:10228C0002005DF804FB0023EEE70000074AD36868
:10229C0023F4E0631B041B0C000200F4E060034316
:1022AC0043F0BF6343F40033D360704700ED00E0AC
:1022BC0010B50446054BD868C0F30220FFF7C6FFE3
:1022CC0001462046FFF7AEFF10BD00BF00ED00E059
:1022DC00002807DB00F01F02400901239340024A4B
:1022EC0042F82030704700BF00E100E00138B0F147
:1022FC00807F0BD24FF0E0235861054AF02182F821
:10230C0023100020986107221A6170470120704742
:10231C0000ED00E070470000FFF7FCFF0B480C4994
:10232C000C4A002302E0D458C4500433C4188C4225
:10233C00F9D3094A094C002301E013600432A2428C
:10234C00FBD300F017F8FDF7DBFF7047000000200F
:10235C001C0000200C2400081C000020240100207C
:10236C00FEE703460244934200D1704703F8011B79
:10237C00F9E7000070B500260C4D0D4C641BA41041
:10238C00A64209D100F01AF800260A4D0A4C641B2B
:10239C00A410A64205D170BD55F8043B98470136F0
:1023AC00EEE755F8043B98470136F2E704240008A1
:1023BC00042400080424000808240008F8B500BF11
:1023CC00F8BC08BC9E467047F8B500BFF8BC08BC0A
:0423DC009E46704762
:1023E0000102000002030405060708090A0B0C0D90
:1023F0000E0F101000000000000000000102030496
:0424000006070809BA
:042404007501000856
:042408004D0100087A
:10240C0001000000050000000300000002000000B5
:0C241C0001000000100000000024F4008B
:0400000508002325A7
:00000001FF
